{
  "contractName": "ATM",
  "abi": [
    {
      "anonymous": false,
      "inputs": [
        {
          "indexed": false,
          "internalType": "address",
          "name": "sender",
          "type": "address"
        },
        {
          "indexed": false,
          "internalType": "uint256",
          "name": "amount",
          "type": "uint256"
        }
      ],
      "name": "Deposit",
      "type": "event"
    },
    {
      "anonymous": false,
      "inputs": [
        {
          "indexed": false,
          "internalType": "address",
          "name": "sender",
          "type": "address"
        },
        {
          "indexed": false,
          "internalType": "address",
          "name": "receiver",
          "type": "address"
        },
        {
          "indexed": false,
          "internalType": "uint256",
          "name": "amount",
          "type": "uint256"
        }
      ],
      "name": "Transfer",
      "type": "event"
    },
    {
      "anonymous": false,
      "inputs": [
        {
          "indexed": false,
          "internalType": "address",
          "name": "receiver",
          "type": "address"
        },
        {
          "indexed": false,
          "internalType": "uint256",
          "name": "amount",
          "type": "uint256"
        }
      ],
      "name": "Withdrawal",
      "type": "event"
    },
    {
      "inputs": [
        {
          "internalType": "address",
          "name": "",
          "type": "address"
        }
      ],
      "name": "balances",
      "outputs": [
        {
          "internalType": "uint256",
          "name": "",
          "type": "uint256"
        }
      ],
      "stateMutability": "view",
      "type": "function"
    },
    {
      "inputs": [],
      "name": "deposit",
      "outputs": [],
      "stateMutability": "payable",
      "type": "function"
    },
    {
      "inputs": [
        {
          "internalType": "uint256",
          "name": "val",
          "type": "uint256"
        }
      ],
      "name": "depositBro",
      "outputs": [],
      "stateMutability": "payable",
      "type": "function"
    },
    {
      "inputs": [
        {
          "internalType": "uint256",
          "name": "amount",
          "type": "uint256"
        }
      ],
      "name": "withdraw",
      "outputs": [],
      "stateMutability": "nonpayable",
      "type": "function"
    },
    {
      "inputs": [
        {
          "internalType": "address[]",
          "name": "receivers",
          "type": "address[]"
        },
        {
          "internalType": "uint256",
          "name": "amount",
          "type": "uint256"
        }
      ],
      "name": "transfer",
      "outputs": [],
      "stateMutability": "nonpayable",
      "type": "function"
    },
    {
      "inputs": [
        {
          "internalType": "address",
          "name": "receiver",
          "type": "address"
        },
        {
          "internalType": "uint256",
          "name": "amount",
          "type": "uint256"
        }
      ],
      "name": "transfer",
      "outputs": [],
      "stateMutability": "nonpayable",
      "type": "function"
    }
  ],
  "bytecode": "0x608060405234801561001057600080fd5b50610c70806100206000396000f3fe6080604052600436106100555760003560e01c80631939c1ff1461005a57806327e235e3146100835780632e1a7d4d146100c05780634610a131146100e9578063a9059cbb14610105578063d0e30db01461012e575b600080fd5b34801561006657600080fd5b50610081600480360381019061007c91906108de565b610138565b005b34801561008f57600080fd5b506100aa60048036038101906100a5919061093a565b610302565b6040516100b79190610976565b60405180910390f35b3480156100cc57600080fd5b506100e760048036038101906100e29190610991565b61031a565b005b61010360048036038101906100fe9190610991565b61042c565b005b34801561011157600080fd5b5061012c600480360381019061012791906109be565b6104e3565b005b61013661064d565b005b8082516101459190610a2d565b6000803373ffffffffffffffffffffffffffffffffffffffff1673ffffffffffffffffffffffffffffffffffffffff1681526020019081526020016000205410156101c5576040517f08c379a00000000000000000000000000000000000000000000000000000000081526004016101bc90610acc565b60405180910390fd5b60005b82518110156102fd577fddf252ad1be2c89b69c2b068fc378daa952ba7f163c4a11628f55a4df523b3ef3384838151811061020657610205610aec565b5b60200260200101518460405161021e93929190610b2a565b60405180910390a1816000803373ffffffffffffffffffffffffffffffffffffffff1673ffffffffffffffffffffffffffffffffffffffff16815260200190815260200160002060008282546102749190610b61565b925050819055508160008085848151811061029257610291610aec565b5b602002602001015173ffffffffffffffffffffffffffffffffffffffff1673ffffffffffffffffffffffffffffffffffffffff16815260200190815260200160002060008282546102e39190610b95565b9250508190555080806102f590610bc9565b9150506101c8565b505050565b60006020528060005260406000206000915090505481565b806000803373ffffffffffffffffffffffffffffffffffffffff1673ffffffffffffffffffffffffffffffffffffffff16815260200190815260200160002054101561039b576040517f08c379a000000000000000000000000000000000000000000000000000000000815260040161039290610acc565b60405180910390fd5b7f7fcf532c15f0a6db0bd6d0e038bea71d30d808c7d98cb3bf7268a95bf5081b6533826040516103cc929190610c11565b60405180910390a1806000803373ffffffffffffffffffffffffffffffffffffffff1673ffffffffffffffffffffffffffffffffffffffff16815260200190815260200160002060008282546104229190610b61565b9250508190555050565b7fe1fffcc4923d04b559f4d29a8bfc6cda04eb5b0d3c460751c2402c5c5cc9109c33670de0b6b3a7640000836104629190610a2d565b604051610470929190610c11565b60405180910390a1670de0b6b3a76400008161048c9190610a2d565b6000803373ffffffffffffffffffffffffffffffffffffffff1673ffffffffffffffffffffffffffffffffffffffff16815260200190815260200160002060008282546104d99190610b95565b9250508190555050565b806000803373ffffffffffffffffffffffffffffffffffffffff1673ffffffffffffffffffffffffffffffffffffffff168152602001908152602001600020541015610564576040517f08c379a000000000000000000000000000000000000000000000000000000000815260040161055b90610acc565b60405180910390fd5b7fddf252ad1be2c89b69c2b068fc378daa952ba7f163c4a11628f55a4df523b3ef33838360405161059793929190610b2a565b60405180910390a1806000803373ffffffffffffffffffffffffffffffffffffffff1673ffffffffffffffffffffffffffffffffffffffff16815260200190815260200160002060008282546105ed9190610b61565b92505081905550806000808473ffffffffffffffffffffffffffffffffffffffff1673ffffffffffffffffffffffffffffffffffffffff16815260200190815260200160002060008282546106429190610b95565b925050819055505050565b7fe1fffcc4923d04b559f4d29a8bfc6cda04eb5b0d3c460751c2402c5c5cc9109c333460405161067e929190610c11565b60405180910390a1346000803373ffffffffffffffffffffffffffffffffffffffff1673ffffffffffffffffffffffffffffffffffffffff16815260200190815260200160002060008282546106d49190610b95565b92505081905550565b6000604051905090565b600080fd5b600080fd5b600080fd5b6000601f19601f8301169050919050565b7f4e487b7100000000000000000000000000000000000000000000000000000000600052604160045260246000fd5b61073f826106f6565b810181811067ffffffffffffffff8211171561075e5761075d610707565b5b80604052505050565b60006107716106dd565b905061077d8282610736565b919050565b600067ffffffffffffffff82111561079d5761079c610707565b5b602082029050602081019050919050565b600080fd5b600073ffffffffffffffffffffffffffffffffffffffff82169050919050565b60006107de826107b3565b9050919050565b6107ee816107d3565b81146107f957600080fd5b50565b60008135905061080b816107e5565b92915050565b600061082461081f84610782565b610767565b90508083825260208201905060208402830185811115610847576108466107ae565b5b835b81811015610870578061085c88826107fc565b845260208401935050602081019050610849565b5050509392505050565b600082601f83011261088f5761088e6106f1565b5b813561089f848260208601610811565b91505092915050565b6000819050919050565b6108bb816108a8565b81146108c657600080fd5b50565b6000813590506108d8816108b2565b92915050565b600080604083850312156108f5576108f46106e7565b5b600083013567ffffffffffffffff811115610913576109126106ec565b5b61091f8582860161087a565b9250506020610930858286016108c9565b9150509250929050565b6000602082840312156109505761094f6106e7565b5b600061095e848285016107fc565b91505092915050565b610970816108a8565b82525050565b600060208201905061098b6000830184610967565b92915050565b6000602082840312156109a7576109a66106e7565b5b60006109b5848285016108c9565b91505092915050565b600080604083850312156109d5576109d46106e7565b5b60006109e3858286016107fc565b92505060206109f4858286016108c9565b9150509250929050565b7f4e487b7100000000000000000000000000000000000000000000000000000000600052601160045260246000fd5b6000610a38826108a8565b9150610a43836108a8565b9250828202610a51816108a8565b91508282048414831517610a6857610a676109fe565b5b5092915050565b600082825260208201905092915050565b7f496e73756666696369656e742066756e64730000000000000000000000000000600082015250565b6000610ab6601283610a6f565b9150610ac182610a80565b602082019050919050565b60006020820190508181036000830152610ae581610aa9565b9050919050565b7f4e487b7100000000000000000000000000000000000000000000000000000000600052603260045260246000fd5b610b24816107d3565b82525050565b6000606082019050610b3f6000830186610b1b565b610b4c6020830185610b1b565b610b596040830184610967565b949350505050565b6000610b6c826108a8565b9150610b77836108a8565b9250828203905081811115610b8f57610b8e6109fe565b5b92915050565b6000610ba0826108a8565b9150610bab836108a8565b9250828201905080821115610bc357610bc26109fe565b5b92915050565b6000610bd4826108a8565b91507fffffffffffffffffffffffffffffffffffffffffffffffffffffffffffffffff8203610c0657610c056109fe565b5b600182019050919050565b6000604082019050610c266000830185610b1b565b610c336020830184610967565b939250505056fea2646970667358221220dd5a8a9bf42a6d22a5c4423d88ebffc1b9f08352b33b399cfa05a5afd8dc48df64736f6c63430008130033",
  "immutableReferences": {},
  "source": "// SPDX-License-Identifier: MIT\r\npragma solidity ^0.8.0;\r\ncontract ATM {\r\n\r\n    mapping(address => uint) public balances;\r\n\r\n    event Deposit(address sender, uint amount);\r\n    event Withdrawal(address receiver, uint amount);\r\n    event Transfer(address sender, address receiver, uint amount);\r\n\r\n    function deposit() public payable {\r\n        emit Deposit(msg.sender, msg.value);\r\n        balances[msg.sender] += msg.value;\r\n    }\r\n\r\n    function depositBro(uint val) public payable {\r\n        emit Deposit(msg.sender, val*1000000000000000000);\r\n        balances[msg.sender] += val*1000000000000000000;\r\n    }\r\n\r\n    function withdraw(uint amount) public {\r\n        require(balances[msg.sender] >= amount, \"Insufficient funds\");\r\n        emit Withdrawal(msg.sender, amount);\r\n        balances[msg.sender] -= amount;\r\n    }\r\n\r\n    function transfer(address receiver, uint amount) public {\r\n        require(balances[msg.sender] >= amount, \"Insufficient funds\");\r\n        emit Transfer(msg.sender, receiver, amount);\r\n        balances[msg.sender] -= amount;\r\n        balances[receiver] += amount;\r\n    }\r\n\r\n    // In a Batch\r\n\r\n    function transfer(address[] memory receivers, uint amount) public {\r\n        require(balances[msg.sender] >= receivers.length * amount, \"Insufficient funds\");\r\n        for (uint i=0; i<receivers.length; i++) {\r\n            emit Transfer(msg.sender, receivers[i], amount);\r\n            balances[msg.sender] -= amount;\r\n            balances[receivers[i]] += amount;\r\n        }\r\n    }\r\n}",
  "sourcePath": "C:\\Users\\ivanc\\Desktop\\FAKS\\2.semestar\\BA\\ProjektBA\\src\\contracts\\ATM.sol",
  "compiler": {
    "name": "solc",
    "version": "0.8.19+commit.7dd6d404.Emscripten.clang"
  },
  "schemaVersion": "3.4.16",
  "updatedAt": "2024-04-17T13:17:56.216Z",
  "devdoc": {
    "kind": "dev",
    "methods": {},
    "version": 1
  },
  "userdoc": {
    "kind": "user",
    "methods": {},
    "version": 1
  }
}