{
  "contractName": "bet",
  "abi": [
    {
      "inputs": [],
      "stateMutability": "payable",
      "type": "constructor"
    },
    {
      "anonymous": false,
      "inputs": [
        {
          "indexed": false,
          "internalType": "address",
          "name": "sender",
          "type": "address"
        },
        {
          "indexed": false,
          "internalType": "uint256",
          "name": "amount",
          "type": "uint256"
        }
      ],
      "name": "Deposit",
      "type": "event"
    },
    {
      "anonymous": false,
      "inputs": [
        {
          "indexed": false,
          "internalType": "address",
          "name": "addy",
          "type": "address"
        },
        {
          "indexed": false,
          "internalType": "uint256",
          "name": "amount",
          "type": "uint256"
        },
        {
          "components": [
            {
              "internalType": "string",
              "name": "name",
              "type": "string"
            },
            {
              "internalType": "uint256",
              "name": "totalBetAmount",
              "type": "uint256"
            }
          ],
          "indexed": false,
          "internalType": "struct bet.Team",
          "name": "teamBet",
          "type": "tuple"
        }
      ],
      "name": "NewBet",
      "type": "event"
    },
    {
      "anonymous": false,
      "inputs": [
        {
          "indexed": true,
          "internalType": "address",
          "name": "previousOwner",
          "type": "address"
        },
        {
          "indexed": true,
          "internalType": "address",
          "name": "newOwner",
          "type": "address"
        }
      ],
      "name": "OwnershipTransferred",
      "type": "event"
    },
    {
      "anonymous": false,
      "inputs": [
        {
          "indexed": false,
          "internalType": "address",
          "name": "sender",
          "type": "address"
        },
        {
          "indexed": false,
          "internalType": "address",
          "name": "receiver",
          "type": "address"
        },
        {
          "indexed": false,
          "internalType": "uint256",
          "name": "amount",
          "type": "uint256"
        }
      ],
      "name": "Transfer",
      "type": "event"
    },
    {
      "anonymous": false,
      "inputs": [
        {
          "indexed": false,
          "internalType": "address",
          "name": "receiver",
          "type": "address"
        },
        {
          "indexed": false,
          "internalType": "uint256",
          "name": "amount",
          "type": "uint256"
        }
      ],
      "name": "Withdrawal",
      "type": "event"
    },
    {
      "inputs": [
        {
          "internalType": "address",
          "name": "",
          "type": "address"
        }
      ],
      "name": "balances",
      "outputs": [
        {
          "internalType": "uint256",
          "name": "",
          "type": "uint256"
        }
      ],
      "stateMutability": "view",
      "type": "function"
    },
    {
      "inputs": [
        {
          "internalType": "uint256",
          "name": "",
          "type": "uint256"
        }
      ],
      "name": "bets",
      "outputs": [
        {
          "internalType": "string",
          "name": "name",
          "type": "string"
        },
        {
          "internalType": "address",
          "name": "addy",
          "type": "address"
        },
        {
          "internalType": "uint256",
          "name": "amount",
          "type": "uint256"
        },
        {
          "components": [
            {
              "internalType": "string",
              "name": "name",
              "type": "string"
            },
            {
              "internalType": "uint256",
              "name": "totalBetAmount",
              "type": "uint256"
            }
          ],
          "internalType": "struct bet.Team",
          "name": "teamBet",
          "type": "tuple"
        }
      ],
      "stateMutability": "view",
      "type": "function"
    },
    {
      "inputs": [],
      "name": "deposit",
      "outputs": [],
      "stateMutability": "payable",
      "type": "function"
    },
    {
      "inputs": [
        {
          "internalType": "uint256",
          "name": "val",
          "type": "uint256"
        }
      ],
      "name": "depositBro",
      "outputs": [],
      "stateMutability": "payable",
      "type": "function"
    },
    {
      "inputs": [],
      "name": "isOwner",
      "outputs": [
        {
          "internalType": "bool",
          "name": "",
          "type": "bool"
        }
      ],
      "stateMutability": "view",
      "type": "function"
    },
    {
      "inputs": [
        {
          "internalType": "address",
          "name": "",
          "type": "address"
        }
      ],
      "name": "numBetsAddress",
      "outputs": [
        {
          "internalType": "uint256",
          "name": "",
          "type": "uint256"
        }
      ],
      "stateMutability": "view",
      "type": "function"
    },
    {
      "inputs": [],
      "name": "owner",
      "outputs": [
        {
          "internalType": "address",
          "name": "",
          "type": "address"
        }
      ],
      "stateMutability": "view",
      "type": "function"
    },
    {
      "inputs": [],
      "name": "renounceOwnership",
      "outputs": [],
      "stateMutability": "nonpayable",
      "type": "function"
    },
    {
      "inputs": [
        {
          "internalType": "uint256",
          "name": "",
          "type": "uint256"
        }
      ],
      "name": "teams",
      "outputs": [
        {
          "internalType": "string",
          "name": "name",
          "type": "string"
        },
        {
          "internalType": "uint256",
          "name": "totalBetAmount",
          "type": "uint256"
        }
      ],
      "stateMutability": "view",
      "type": "function"
    },
    {
      "inputs": [],
      "name": "totalBetMoney",
      "outputs": [
        {
          "internalType": "uint256",
          "name": "",
          "type": "uint256"
        }
      ],
      "stateMutability": "view",
      "type": "function"
    },
    {
      "inputs": [
        {
          "internalType": "address[]",
          "name": "receivers",
          "type": "address[]"
        },
        {
          "internalType": "uint256",
          "name": "amount",
          "type": "uint256"
        }
      ],
      "name": "transfer",
      "outputs": [],
      "stateMutability": "nonpayable",
      "type": "function"
    },
    {
      "inputs": [
        {
          "internalType": "address",
          "name": "receiver",
          "type": "address"
        },
        {
          "internalType": "uint256",
          "name": "amount",
          "type": "uint256"
        }
      ],
      "name": "transfer",
      "outputs": [],
      "stateMutability": "nonpayable",
      "type": "function"
    },
    {
      "inputs": [
        {
          "internalType": "address",
          "name": "newOwner",
          "type": "address"
        }
      ],
      "name": "transferOwnership",
      "outputs": [],
      "stateMutability": "nonpayable",
      "type": "function"
    },
    {
      "inputs": [
        {
          "internalType": "uint256",
          "name": "amount",
          "type": "uint256"
        }
      ],
      "name": "withdraw",
      "outputs": [],
      "stateMutability": "nonpayable",
      "type": "function"
    },
    {
      "inputs": [
        {
          "internalType": "string",
          "name": "_name",
          "type": "string"
        }
      ],
      "name": "createTeam",
      "outputs": [],
      "stateMutability": "nonpayable",
      "type": "function"
    },
    {
      "inputs": [
        {
          "internalType": "uint256",
          "name": "_teamId",
          "type": "uint256"
        }
      ],
      "name": "getTotalBetAmount",
      "outputs": [
        {
          "internalType": "uint256",
          "name": "",
          "type": "uint256"
        }
      ],
      "stateMutability": "view",
      "type": "function"
    },
    {
      "inputs": [
        {
          "internalType": "string",
          "name": "_name",
          "type": "string"
        },
        {
          "internalType": "uint256",
          "name": "_teamId",
          "type": "uint256"
        }
      ],
      "name": "createBet",
      "outputs": [],
      "stateMutability": "payable",
      "type": "function"
    },
    {
      "inputs": [
        {
          "internalType": "uint256",
          "name": "_teamId",
          "type": "uint256"
        }
      ],
      "name": "teamWinDistribution",
      "outputs": [],
      "stateMutability": "payable",
      "type": "function"
    }
  ],
  "bytecode": "0x60806040525f6005553360015f6101000a81548173ffffffffffffffffffffffffffffffffffffffff021916908373ffffffffffffffffffffffffffffffffffffffff16021790555060015f9054906101000a900473ffffffffffffffffffffffffffffffffffffffff1673ffffffffffffffffffffffffffffffffffffffff165f73ffffffffffffffffffffffffffffffffffffffff167f8be0079c531659141344cd1fd0a4f28419497f9722a3daafe3b4186f6b6457e060405160405180910390a33360045f6101000a81548173ffffffffffffffffffffffffffffffffffffffff021916908373ffffffffffffffffffffffffffffffffffffffff160217905550600360405180604001604052806040518060400160405280600581526020017f7465616d3100000000000000000000000000000000000000000000000000000081525081526020015f815250908060018154018082558091505060019003905f5260205f2090600202015f909190919091505f820151815f0190816200018a919062000495565b50602082015181600101555050600360405180604001604052806040518060400160405280600581526020017f7465616d3200000000000000000000000000000000000000000000000000000081525081526020015f815250908060018154018082558091505060019003905f5260205f2090600202015f909190919091505f820151815f0190816200021e919062000495565b5060208201518160010155505062000579565b5f81519050919050565b7f4e487b71000000000000000000000000000000000000000000000000000000005f52604160045260245ffd5b7f4e487b71000000000000000000000000000000000000000000000000000000005f52602260045260245ffd5b5f6002820490506001821680620002ad57607f821691505b602082108103620002c357620002c262000268565b5b50919050565b5f819050815f5260205f209050919050565b5f6020601f8301049050919050565b5f82821b905092915050565b5f60088302620003277fffffffffffffffffffffffffffffffffffffffffffffffffffffffffffffffff82620002ea565b620003338683620002ea565b95508019841693508086168417925050509392505050565b5f819050919050565b5f819050919050565b5f6200037d6200037762000371846200034b565b62000354565b6200034b565b9050919050565b5f819050919050565b62000398836200035d565b620003b0620003a78262000384565b848454620002f6565b825550505050565b5f90565b620003c6620003b8565b620003d38184846200038d565b505050565b5b81811015620003fa57620003ee5f82620003bc565b600181019050620003d9565b5050565b601f82111562000449576200041381620002c9565b6200041e84620002db565b810160208510156200042e578190505b620004466200043d85620002db565b830182620003d8565b50505b505050565b5f82821c905092915050565b5f6200046b5f19846008026200044e565b1980831691505092915050565b5f6200048583836200045a565b9150826002028217905092915050565b620004a08262000231565b67ffffffffffffffff811115620004bc57620004bb6200023b565b5b620004c8825462000295565b620004d5828285620003fe565b5f60209050601f8311600181146200050b575f8415620004f6578287015190505b62000502858262000478565b86555062000571565b601f1984166200051b86620002c9565b5f5b8281101562000544578489015182556001820191506020850194506020810190506200051d565b8683101562000564578489015162000560601f8916826200045a565b8355505b6001600288020188555050505b505050505050565b612a9280620005875f395ff3fe608060405260043610610108575f3560e01c8063715018a611610094578063a9059cbb11610063578063a9059cbb14610356578063c8e405151461037e578063d0e30db0146103a8578063d6704206146103b2578063f2fde38b146103ce57610108565b8063715018a6146102c45780638da5cb5b146102da5780638f32d59b14610304578063972fa53f1461032e57610108565b80632e1a7d4d116100db5780632e1a7d4d146101eb5780633ed2b77a146102135780634610a13114610250578063481972c41461026c57806350de367a1461028857610108565b80630e89da561461010c5780631939c1ff1461014857806322af00fa1461017057806327e235e3146101af575b5f80fd5b348015610117575f80fd5b50610132600480360381019061012d9190611ac7565b6103f6565b60405161013f9190611b01565b60405180910390f35b348015610153575f80fd5b5061016e60048036038101906101699190611cc4565b610422565b005b34801561017b575f80fd5b5061019660048036038101906101919190611ac7565b6105e3565b6040516101a69493929190611e38565b60405180910390f35b3480156101ba575f80fd5b506101d560048036038101906101d09190611e89565b610766565b6040516101e29190611b01565b60405180910390f35b3480156101f6575f80fd5b50610211600480360381019061020c9190611ac7565b61077a565b005b34801561021e575f80fd5b5061023960048036038101906102349190611ac7565b610887565b604051610247929190611eb4565b60405180910390f35b61026a60048036038101906102659190611ac7565b61093c565b005b61028660048036038101906102819190611ac7565b6109f0565b005b348015610293575f80fd5b506102ae60048036038101906102a99190611e89565b610f3c565b6040516102bb9190611b01565b60405180910390f35b3480156102cf575f80fd5b506102d8610f51565b005b3480156102e5575f80fd5b506102ee61101e565b6040516102fb9190611ee2565b60405180910390f35b34801561030f575f80fd5b50610318611046565b6040516103259190611f15565b60405180910390f35b348015610339575f80fd5b50610354600480360381019061034f9190611fde565b61109c565b005b348015610361575f80fd5b5061037c60048036038101906103779190612025565b6110fc565b005b348015610389575f80fd5b5061039261125e565b60405161039f9190611b01565b60405180910390f35b6103b0611264565b005b6103cc60048036038101906103c79190612063565b6112f1565b005b3480156103d9575f80fd5b506103f460048036038101906103ef9190611e89565b61181a565b005b5f6003828154811061040b5761040a6120bd565b5b905f5260205f209060020201600101549050919050565b80825161042f9190612117565b5f803373ffffffffffffffffffffffffffffffffffffffff1673ffffffffffffffffffffffffffffffffffffffff1681526020019081526020015f205410156104ad576040517f08c379a00000000000000000000000000000000000000000000000000000000081526004016104a4906121a2565b60405180910390fd5b5f5b82518110156105de577fddf252ad1be2c89b69c2b068fc378daa952ba7f163c4a11628f55a4df523b3ef338483815181106104ed576104ec6120bd565b5b602002602001015184604051610505939291906121c0565b60405180910390a1815f803373ffffffffffffffffffffffffffffffffffffffff1673ffffffffffffffffffffffffffffffffffffffff1681526020019081526020015f205f82825461055891906121f5565b92505081905550815f80858481518110610575576105746120bd565b5b602002602001015173ffffffffffffffffffffffffffffffffffffffff1673ffffffffffffffffffffffffffffffffffffffff1681526020019081526020015f205f8282546105c49190612228565b9250508190555080806105d69061225b565b9150506104af565b505050565b600281815481106105f2575f80fd5b905f5260205f2090600502015f91509050805f018054610611906122cf565b80601f016020809104026020016040519081016040528092919081815260200182805461063d906122cf565b80156106885780601f1061065f57610100808354040283529160200191610688565b820191905f5260205f20905b81548152906001019060200180831161066b57829003601f168201915b505050505090806001015f9054906101000a900473ffffffffffffffffffffffffffffffffffffffff1690806002015490806003016040518060400160405290815f820180546106d7906122cf565b80601f0160208091040260200160405190810160405280929190818152602001828054610703906122cf565b801561074e5780601f106107255761010080835404028352916020019161074e565b820191905f5260205f20905b81548152906001019060200180831161073157829003601f168201915b50505050508152602001600182015481525050905084565b5f602052805f5260405f205f915090505481565b805f803373ffffffffffffffffffffffffffffffffffffffff1673ffffffffffffffffffffffffffffffffffffffff1681526020019081526020015f205410156107f9576040517f08c379a00000000000000000000000000000000000000000000000000000000081526004016107f0906121a2565b60405180910390fd5b7f7fcf532c15f0a6db0bd6d0e038bea71d30d808c7d98cb3bf7268a95bf5081b65338260405161082a9291906122ff565b60405180910390a1805f803373ffffffffffffffffffffffffffffffffffffffff1673ffffffffffffffffffffffffffffffffffffffff1681526020019081526020015f205f82825461087d91906121f5565b9250508190555050565b60038181548110610896575f80fd5b905f5260205f2090600202015f91509050805f0180546108b5906122cf565b80601f01602080910402602001604051908101604052809291908181526020018280546108e1906122cf565b801561092c5780601f106109035761010080835404028352916020019161092c565b820191905f5260205f20905b81548152906001019060200180831161090f57829003601f168201915b5050505050908060010154905082565b7fe1fffcc4923d04b559f4d29a8bfc6cda04eb5b0d3c460751c2402c5c5cc9109c33670de0b6b3a7640000836109729190612117565b6040516109809291906122ff565b60405180910390a1670de0b6b3a76400008161099c9190612117565b5f803373ffffffffffffffffffffffffffffffffffffffff1673ffffffffffffffffffffffffffffffffffffffff1681526020019081526020015f205f8282546109e69190612228565b9250508190555050565b6109f8611046565b610a00575f80fd5b610a08611264565b5f808203610c1e575f5b600280549050811015610c1857604051602001610a2e9061237a565b6040516020818303038152906040528051906020012060028281548110610a5857610a576120bd565b5b905f5260205f2090600502016003015f01604051602001610a799190612420565b6040516020818303038152906040528051906020012003610c05575f60028281548110610aa957610aa86120bd565b5b905f5260205f2090600502016001015f9054906101000a900473ffffffffffffffffffffffffffffffffffffffff169050610ae381611836565b612710610aef5f6103f6565b612710610afc60016103f6565b610b069190612117565b610b109190612463565b612710610b1d9190612228565b60028481548110610b3157610b306120bd565b5b905f5260205f20906005020160020154610b4b9190612117565b610b559190612463565b92505f808273ffffffffffffffffffffffffffffffffffffffff1685604051610b7d906124c0565b5f6040518083038185875af1925050503d805f8114610bb7576040519150601f19603f3d011682016040523d82523d5f602084013e610bbc565b606091505b509150915081610c01576040517f08c379a0000000000000000000000000000000000000000000000000000000008152600401610bf89061251e565b60405180910390fd5b5050505b8080610c109061225b565b915050610a12565b50610e39565b5f5b600280549050811015610e3757604051602001610c3c90612586565b6040516020818303038152906040528051906020012060028281548110610c6657610c656120bd565b5b905f5260205f2090600502016003015f01604051602001610c879190612420565b6040516020818303038152906040528051906020012003610e24575f60028281548110610cb757610cb66120bd565b5b905f5260205f2090600502016001015f9054906101000a900473ffffffffffffffffffffffffffffffffffffffff169050612710610cf560016103f6565b612710610d015f6103f6565b610d0b9190612117565b610d159190612463565b612710610d229190612228565b60028481548110610d3657610d356120bd565b5b905f5260205f20906005020160020154610d509190612117565b610d5a9190612463565b9250610d6d610d685f6103f6565b6118cf565b610d76836118cf565b5f808273ffffffffffffffffffffffffffffffffffffffff1685604051610d9c906124c0565b5f6040518083038185875af1925050503d805f8114610dd6576040519150601f19603f3d011682016040523d82523d5f602084013e610ddb565b606091505b509150915081610e20576040517f08c379a0000000000000000000000000000000000000000000000000000000008152600401610e179061251e565b60405180910390fd5b5050505b8080610e2f9061225b565b915050610c20565b505b5f6005819055505f60035f81548110610e5557610e546120bd565b5b905f5260205f209060020201600101819055505f6003600181548110610e7e57610e7d6120bd565b5b905f5260205f209060020201600101819055505f5b600280549050811015610f37575f60065f60028481548110610eb857610eb76120bd565b5b905f5260205f2090600502016001015f9054906101000a900473ffffffffffffffffffffffffffffffffffffffff1673ffffffffffffffffffffffffffffffffffffffff1673ffffffffffffffffffffffffffffffffffffffff1681526020019081526020015f20819055508080610f2f9061225b565b915050610e93565b505050565b6006602052805f5260405f205f915090505481565b610f59611046565b610f61575f80fd5b5f73ffffffffffffffffffffffffffffffffffffffff1660015f9054906101000a900473ffffffffffffffffffffffffffffffffffffffff1673ffffffffffffffffffffffffffffffffffffffff167f8be0079c531659141344cd1fd0a4f28419497f9722a3daafe3b4186f6b6457e060405160405180910390a35f60015f6101000a81548173ffffffffffffffffffffffffffffffffffffffff021916908373ffffffffffffffffffffffffffffffffffffffff160217905550565b5f60015f9054906101000a900473ffffffffffffffffffffffffffffffffffffffff16905090565b5f60015f9054906101000a900473ffffffffffffffffffffffffffffffffffffffff1673ffffffffffffffffffffffffffffffffffffffff163373ffffffffffffffffffffffffffffffffffffffff1614905090565b600360405180604001604052808381526020015f815250908060018154018082558091505060019003905f5260205f2090600202015f909190919091505f820151815f0190816110ec9190612725565b5060208201518160010155505050565b805f803373ffffffffffffffffffffffffffffffffffffffff1673ffffffffffffffffffffffffffffffffffffffff1681526020019081526020015f2054101561117b576040517f08c379a0000000000000000000000000000000000000000000000000000000008152600401611172906121a2565b60405180910390fd5b7fddf252ad1be2c89b69c2b068fc378daa952ba7f163c4a11628f55a4df523b3ef3383836040516111ae939291906121c0565b60405180910390a1805f803373ffffffffffffffffffffffffffffffffffffffff1673ffffffffffffffffffffffffffffffffffffffff1681526020019081526020015f205f82825461120191906121f5565b92505081905550805f808473ffffffffffffffffffffffffffffffffffffffff1673ffffffffffffffffffffffffffffffffffffffff1681526020019081526020015f205f8282546112539190612228565b925050819055505050565b60055481565b7fe1fffcc4923d04b559f4d29a8bfc6cda04eb5b0d3c460751c2402c5c5cc9109c33346040516112959291906122ff565b60405180910390a1345f803373ffffffffffffffffffffffffffffffffffffffff1673ffffffffffffffffffffffffffffffffffffffff1681526020019081526020015f205f8282546112e89190612228565b92505081905550565b60045f9054906101000a900473ffffffffffffffffffffffffffffffffffffffff1673ffffffffffffffffffffffffffffffffffffffff163373ffffffffffffffffffffffffffffffffffffffff1603611380576040517f08c379a00000000000000000000000000000000000000000000000000000000081526004016113779061283e565b60405180910390fd5b5f60065f3373ffffffffffffffffffffffffffffffffffffffff1673ffffffffffffffffffffffffffffffffffffffff1681526020019081526020015f2054146113ff576040517f08c379a00000000000000000000000000000000000000000000000000000000081526004016113f6906128a6565b60405180910390fd5b662386f26fc100003411611448576040517f08c379a000000000000000000000000000000000000000000000000000000000815260040161143f9061290e565b60405180910390fd5b611450611264565b600260405180608001604052808481526020013373ffffffffffffffffffffffffffffffffffffffff16815260200134815260200160038481548110611499576114986120bd565b5b905f5260205f2090600202016040518060400160405290815f820180546114bf906122cf565b80601f01602080910402602001604051908101604052809291908181526020018280546114eb906122cf565b80156115365780601f1061150d57610100808354040283529160200191611536565b820191905f5260205f20905b81548152906001019060200180831161151957829003601f168201915b50505050508152602001600182015481525050815250908060018154018082558091505060019003905f5260205f2090600502015f909190919091505f820151815f0190816115859190612725565b506020820151816001015f6101000a81548173ffffffffffffffffffffffffffffffffffffffff021916908373ffffffffffffffffffffffffffffffffffffffff160217905550604082015181600201556060820151816003015f820151815f0190816115f29190612725565b5060208201518160010155505050505f8103611642573460035f8154811061161d5761161c6120bd565b5b905f5260205f2090600202016001015f82825461163a9190612228565b925050819055505b60018103611685573460036001815481106116605761165f6120bd565b5b905f5260205f2090600202016001015f82825461167d9190612228565b925050819055505b60065f3373ffffffffffffffffffffffffffffffffffffffff1673ffffffffffffffffffffffffffffffffffffffff1681526020019081526020015f205f8154809291906116d29061225b565b91905055505f8060045f9054906101000a900473ffffffffffffffffffffffffffffffffffffffff1673ffffffffffffffffffffffffffffffffffffffff163460405161171e906124c0565b5f6040518083038185875af1925050503d805f8114611758576040519150601f19603f3d011682016040523d82523d5f602084013e61175d565b606091505b5091509150816117a2576040517f08c379a00000000000000000000000000000000000000000000000000000000081526004016117999061251e565b60405180910390fd5b3460055f8282546117b39190612228565b925050819055507f948a46eba9469fc822b082631d32f2456ea94a35179d32230095b6f34fb341cb3334600386815481106117f1576117f06120bd565b5b905f5260205f20906002020160405161180c93929190612a20565b60405180910390a150505050565b611822611046565b61182a575f80fd5b61183381611968565b50565b6118cc8160405160240161184a9190611ee2565b6040516020818303038152906040527f2c2ecbc2000000000000000000000000000000000000000000000000000000007bffffffffffffffffffffffffffffffffffffffffffffffffffffffff19166020820180517bffffffffffffffffffffffffffffffffffffffffffffffffffffffff8381831617835250505050611a5d565b50565b611965816040516024016118e39190611b01565b6040516020818303038152906040527ff5b1bba9000000000000000000000000000000000000000000000000000000007bffffffffffffffffffffffffffffffffffffffffffffffffffffffff19166020820180517bffffffffffffffffffffffffffffffffffffffffffffffffffffffff8381831617835250505050611a5d565b50565b5f73ffffffffffffffffffffffffffffffffffffffff168173ffffffffffffffffffffffffffffffffffffffff160361199f575f80fd5b8073ffffffffffffffffffffffffffffffffffffffff1660015f9054906101000a900473ffffffffffffffffffffffffffffffffffffffff1673ffffffffffffffffffffffffffffffffffffffff167f8be0079c531659141344cd1fd0a4f28419497f9722a3daafe3b4186f6b6457e060405160405180910390a38060015f6101000a81548173ffffffffffffffffffffffffffffffffffffffff021916908373ffffffffffffffffffffffffffffffffffffffff16021790555050565b5f815190505f6a636f6e736f6c652e6c6f679050602083015f808483855afa5050505050565b5f604051905090565b5f80fd5b5f80fd5b5f819050919050565b611aa681611a94565b8114611ab0575f80fd5b50565b5f81359050611ac181611a9d565b92915050565b5f60208284031215611adc57611adb611a8c565b5b5f611ae984828501611ab3565b91505092915050565b611afb81611a94565b82525050565b5f602082019050611b145f830184611af2565b92915050565b5f80fd5b5f601f19601f8301169050919050565b7f4e487b71000000000000000000000000000000000000000000000000000000005f52604160045260245ffd5b611b6482611b1e565b810181811067ffffffffffffffff82111715611b8357611b82611b2e565b5b80604052505050565b5f611b95611a83565b9050611ba18282611b5b565b919050565b5f67ffffffffffffffff821115611bc057611bbf611b2e565b5b602082029050602081019050919050565b5f80fd5b5f73ffffffffffffffffffffffffffffffffffffffff82169050919050565b5f611bfe82611bd5565b9050919050565b611c0e81611bf4565b8114611c18575f80fd5b50565b5f81359050611c2981611c05565b92915050565b5f611c41611c3c84611ba6565b611b8c565b90508083825260208201905060208402830185811115611c6457611c63611bd1565b5b835b81811015611c8d5780611c798882611c1b565b845260208401935050602081019050611c66565b5050509392505050565b5f82601f830112611cab57611caa611b1a565b5b8135611cbb848260208601611c2f565b91505092915050565b5f8060408385031215611cda57611cd9611a8c565b5b5f83013567ffffffffffffffff811115611cf757611cf6611a90565b5b611d0385828601611c97565b9250506020611d1485828601611ab3565b9150509250929050565b5f81519050919050565b5f82825260208201905092915050565b5f5b83811015611d55578082015181840152602081019050611d3a565b5f8484015250505050565b5f611d6a82611d1e565b611d748185611d28565b9350611d84818560208601611d38565b611d8d81611b1e565b840191505092915050565b611da181611bf4565b82525050565b5f82825260208201905092915050565b5f611dc182611d1e565b611dcb8185611da7565b9350611ddb818560208601611d38565b611de481611b1e565b840191505092915050565b611df881611a94565b82525050565b5f604083015f8301518482035f860152611e188282611db7565b9150506020830151611e2d6020860182611def565b508091505092915050565b5f6080820190508181035f830152611e508187611d60565b9050611e5f6020830186611d98565b611e6c6040830185611af2565b8181036060830152611e7e8184611dfe565b905095945050505050565b5f60208284031215611e9e57611e9d611a8c565b5b5f611eab84828501611c1b565b91505092915050565b5f6040820190508181035f830152611ecc8185611d60565b9050611edb6020830184611af2565b9392505050565b5f602082019050611ef55f830184611d98565b92915050565b5f8115159050919050565b611f0f81611efb565b82525050565b5f602082019050611f285f830184611f06565b92915050565b5f80fd5b5f67ffffffffffffffff821115611f4c57611f4b611b2e565b5b611f5582611b1e565b9050602081019050919050565b828183375f83830152505050565b5f611f82611f7d84611f32565b611b8c565b905082815260208101848484011115611f9e57611f9d611f2e565b5b611fa9848285611f62565b509392505050565b5f82601f830112611fc557611fc4611b1a565b5b8135611fd5848260208601611f70565b91505092915050565b5f60208284031215611ff357611ff2611a8c565b5b5f82013567ffffffffffffffff8111156120105761200f611a90565b5b61201c84828501611fb1565b91505092915050565b5f806040838503121561203b5761203a611a8c565b5b5f61204885828601611c1b565b925050602061205985828601611ab3565b9150509250929050565b5f806040838503121561207957612078611a8c565b5b5f83013567ffffffffffffffff81111561209657612095611a90565b5b6120a285828601611fb1565b92505060206120b385828601611ab3565b9150509250929050565b7f4e487b71000000000000000000000000000000000000000000000000000000005f52603260045260245ffd5b7f4e487b71000000000000000000000000000000000000000000000000000000005f52601160045260245ffd5b5f61212182611a94565b915061212c83611a94565b925082820261213a81611a94565b91508282048414831517612151576121506120ea565b5b5092915050565b7f496e73756666696369656e742066756e647300000000000000000000000000005f82015250565b5f61218c601283611d28565b915061219782612158565b602082019050919050565b5f6020820190508181035f8301526121b981612180565b9050919050565b5f6060820190506121d35f830186611d98565b6121e06020830185611d98565b6121ed6040830184611af2565b949350505050565b5f6121ff82611a94565b915061220a83611a94565b9250828203905081811115612222576122216120ea565b5b92915050565b5f61223282611a94565b915061223d83611a94565b9250828201905080821115612255576122546120ea565b5b92915050565b5f61226582611a94565b91507fffffffffffffffffffffffffffffffffffffffffffffffffffffffffffffffff8203612297576122966120ea565b5b600182019050919050565b7f4e487b71000000000000000000000000000000000000000000000000000000005f52602260045260245ffd5b5f60028204905060018216806122e657607f821691505b6020821081036122f9576122f86122a2565b5b50919050565b5f6040820190506123125f830185611d98565b61231f6020830184611af2565b9392505050565b5f81905092915050565b7f7465616d310000000000000000000000000000000000000000000000000000005f82015250565b5f612364600583612326565b915061236f82612330565b600582019050919050565b5f61238482612358565b9150819050919050565b5f819050815f5260205f209050919050565b5f81546123ac816122cf565b6123b68186612326565b9450600182165f81146123d057600181146123e557612417565b60ff1983168652811515820286019350612417565b6123ee8561238e565b5f5b8381101561240f578154818901526001820191506020810190506123f0565b838801955050505b50505092915050565b5f61242b82846123a0565b915081905092915050565b7f4e487b71000000000000000000000000000000000000000000000000000000005f52601260045260245ffd5b5f61246d82611a94565b915061247883611a94565b92508261248857612487612436565b5b828204905092915050565b5f81905092915050565b50565b5f6124ab5f83612493565b91506124b68261249d565b5f82019050919050565b5f6124ca826124a0565b9150819050919050565b7f4661696c656420746f2073656e642045746865720000000000000000000000005f82015250565b5f612508601483611d28565b9150612513826124d4565b602082019050919050565b5f6020820190508181035f830152612535816124fc565b9050919050565b7f7465616d320000000000000000000000000000000000000000000000000000005f82015250565b5f612570600583612326565b915061257b8261253c565b600582019050919050565b5f61259082612564565b9150819050919050565b5f6020601f8301049050919050565b5f82821b905092915050565b5f600883026125e47fffffffffffffffffffffffffffffffffffffffffffffffffffffffffffffffff826125a9565b6125ee86836125a9565b95508019841693508086168417925050509392505050565b5f819050919050565b5f61262961262461261f84611a94565b612606565b611a94565b9050919050565b5f819050919050565b6126428361260f565b61265661264e82612630565b8484546125b5565b825550505050565b5f90565b61266a61265e565b612675818484612639565b505050565b5b818110156126985761268d5f82612662565b60018101905061267b565b5050565b601f8211156126dd576126ae8161238e565b6126b78461259a565b810160208510156126c6578190505b6126da6126d28561259a565b83018261267a565b50505b505050565b5f82821c905092915050565b5f6126fd5f19846008026126e2565b1980831691505092915050565b5f61271583836126ee565b9150826002028217905092915050565b61272e82611d1e565b67ffffffffffffffff81111561274757612746611b2e565b5b61275182546122cf565b61275c82828561269c565b5f60209050601f83116001811461278d575f841561277b578287015190505b612785858261270a565b8655506127ec565b601f19841661279b8661238e565b5f5b828110156127c25784890151825560018201915060208501945060208101905061279d565b868310156127df57848901516127db601f8916826126ee565b8355505b6001600288020188555050505b505050505050565b7f6f776e65722063616e2774206d616b65206120626574000000000000000000005f82015250565b5f612828601683611d28565b9150612833826127f4565b602082019050919050565b5f6020820190508181035f8301526128558161281c565b9050919050565b7f796f75206861766520616c726561647920706c616365642061206265740000005f82015250565b5f612890601d83611d28565b915061289b8261285c565b602082019050919050565b5f6020820190508181035f8301526128bd81612884565b9050919050565b7f626574206d6f72650000000000000000000000000000000000000000000000005f82015250565b5f6128f8600883611d28565b9150612903826128c4565b602082019050919050565b5f6020820190508181035f830152612925816128ec565b9050919050565b5f8154612938816122cf565b6129428186611da7565b9450600182165f811461295c5760018114612972576129a4565b60ff1983168652811515602002860193506129a4565b61297b8561238e565b5f5b8381101561299c5781548189015260018201915060208101905061297d565b808801955050505b50505092915050565b5f815f1c9050919050565b5f819050919050565b5f6129d36129ce836129ad565b6129b8565b9050919050565b5f604083015f8084018583035f8701526129f4838261292c565b92505060018401549050612a07816129c1565b612a146020870182611def565b50819250505092915050565b5f606082019050612a335f830186611d98565b612a406020830185611af2565b8181036040830152612a5281846129da565b905094935050505056fea26469706673582212200143b57bbe67c14090c1f93d59df1d614409f613fce25a06f3ea190b20797b7864736f6c63430008150033",
  "immutableReferences": {},
  "source": "// SPDX-License-Identifier: MIT\r\npragma solidity ^0.8.21;\r\n\r\nimport \"./Ownable.sol\";\r\nimport \"./ATM.sol\";\r\nimport \"./console.sol\";\r\n\r\ncontract bet is ATM, Ownable {\r\n\r\n    event NewBet(\r\n        address addy, \r\n        uint amount, \r\n        Team teamBet\r\n    );\r\n\r\n    struct Bet {\r\n        string name;\r\n        address addy;\r\n        uint amount;\r\n        Team teamBet;\r\n    }\r\n\r\n    struct Team {\r\n        string name;\r\n        uint totalBetAmount;\r\n    }\r\n\r\n    Bet[] public bets;\r\n    Team[] public teams;\r\n    \r\n    address payable conOwner;\r\n    uint public totalBetMoney = 0;\r\n\r\n    mapping (address => uint) public numBetsAddress;\r\n\r\n\r\n    constructor() payable {\r\n        conOwner = payable(msg.sender);\r\n        teams.push(Team(\"team1\", 0));\r\n        teams.push(Team(\"team2\", 0));\r\n\r\n    }\r\n\r\n    function createTeam (string memory _name) public {\r\n        teams.push(Team(_name, 0));\r\n    }\r\n\r\n    function getTotalBetAmount (uint _teamId) public view returns (uint) {\r\n        return teams[_teamId].totalBetAmount;\r\n    }\r\n    \r\n    function createBet (string memory _name, uint _teamId) external payable {       \r\n        require (msg.sender != conOwner, \"owner can't make a bet\");\r\n        require (numBetsAddress[msg.sender] == 0, \"you have already placed a bet\");\r\n        require (msg.value > 0.01 ether, \"bet more\");\r\n\r\n        deposit();\r\n\r\n        bets.push(Bet(_name, msg.sender, msg.value, teams[_teamId]));\r\n\r\n        if (_teamId == 0) {\r\n            teams[0].totalBetAmount += msg.value;\r\n        } \r\n        if (_teamId == 1) {\r\n            teams[1].totalBetAmount += msg.value;\r\n        }\r\n\r\n        numBetsAddress[msg.sender]++;\r\n        \r\n        (bool sent, bytes memory data) = conOwner.call{value: msg.value}(\"\");\r\n        require(sent, \"Failed to send Ether\");\r\n\r\n        totalBetMoney += msg.value;\r\n\r\n        emit NewBet(msg.sender, msg.value, teams[_teamId]);\r\n\r\n    }\r\n\r\n    function teamWinDistribution(uint _teamId) public payable onlyOwner() {\r\n        \r\n        deposit();\r\n        uint div;\r\n                \r\n        if (_teamId == 0) {\r\n            for (uint i = 0; i < bets.length; i++) {\r\n                if (keccak256(abi.encodePacked((bets[i].teamBet.name))) == keccak256(abi.encodePacked(\"team1\"))) {\r\n                    address payable receiver = payable(bets[i].addy);\r\n                    console.log(receiver);\r\n                    div = (bets[i].amount * (10000 + (getTotalBetAmount(1) * 10000 / getTotalBetAmount(0)))) / 10000;\r\n\r\n                    (bool sent, bytes memory data) = receiver.call{ value: div }(\"\");\r\n                    require(sent, \"Failed to send Ether\");\r\n                    \r\n                }\r\n            }\r\n        } else {\r\n            for (uint i = 0; i < bets.length; i++) {\r\n                if (keccak256(abi.encodePacked((bets[i].teamBet.name))) == keccak256(abi.encodePacked(\"team2\"))) {\r\n                    address payable receiver = payable(bets[i].addy);\r\n                    div = (bets[i].amount * (10000 + (getTotalBetAmount(0) * 10000 / getTotalBetAmount(1)))) / 10000;\r\n                    console.log(getTotalBetAmount(0));\r\n                    console.log(div);\r\n\r\n                    (bool sent, bytes memory data) = receiver.call{ value: div }(\"\");\r\n                    require(sent, \"Failed to send Ether\");\r\n                }\r\n            }\r\n        }\r\n\r\n        totalBetMoney = 0;\r\n        teams[0].totalBetAmount = 0;\r\n        teams[1].totalBetAmount = 0;\r\n\r\n        for (uint i = 0; i < bets.length; i++) {\r\n            numBetsAddress[bets[i].addy] = 0;\r\n        }\r\n    }\r\n}",
  "sourcePath": "C:\\Users\\ivanc\\Desktop\\FAKS\\2.semestar\\BA\\ProjektBA\\contracts\\bet.sol",
  "compiler": {
    "name": "solc",
    "version": "0.8.21+commit.d9974bed.Emscripten.clang"
  },
  "schemaVersion": "3.4.16",
  "updatedAt": "2024-04-13T19:55:32.841Z",
  "devdoc": {
    "kind": "dev",
    "methods": {
      "isOwner()": {
        "returns": {
          "_0": "true if `msg.sender` is the owner of the contract."
        }
      },
      "owner()": {
        "returns": {
          "_0": "the address of the owner."
        }
      },
      "renounceOwnership()": {
        "details": "Allows the current owner to relinquish control of the contract."
      },
      "transferOwnership(address)": {
        "details": "Allows the current owner to transfer control of the contract to a newOwner.",
        "params": {
          "newOwner": "The address to transfer ownership to."
        }
      }
    },
    "version": 1
  },
  "userdoc": {
    "kind": "user",
    "methods": {
      "renounceOwnership()": {
        "notice": "Renouncing to ownership will leave the contract without an owner. It will not be possible to call the functions with the `onlyOwner` modifier anymore."
      }
    },
    "version": 1
  }
}