{
  "contractName": "bet",
  "abi": [
    {
      "inputs": [],
      "stateMutability": "payable",
      "type": "constructor",
      "payable": true
    },
    {
      "anonymous": false,
      "inputs": [
        {
          "indexed": false,
          "internalType": "address",
          "name": "sender",
          "type": "address"
        },
        {
          "indexed": false,
          "internalType": "uint256",
          "name": "amount",
          "type": "uint256"
        }
      ],
      "name": "Deposit",
      "type": "event"
    },
    {
      "anonymous": false,
      "inputs": [
        {
          "indexed": false,
          "internalType": "address",
          "name": "addy",
          "type": "address"
        },
        {
          "indexed": false,
          "internalType": "uint256",
          "name": "amount",
          "type": "uint256"
        },
        {
          "components": [
            {
              "internalType": "string",
              "name": "name",
              "type": "string"
            },
            {
              "internalType": "uint256",
              "name": "totalBetAmount",
              "type": "uint256"
            }
          ],
          "indexed": false,
          "internalType": "struct bet.Team",
          "name": "teamBet",
          "type": "tuple"
        }
      ],
      "name": "NewBet",
      "type": "event"
    },
    {
      "anonymous": false,
      "inputs": [
        {
          "indexed": true,
          "internalType": "address",
          "name": "previousOwner",
          "type": "address"
        },
        {
          "indexed": true,
          "internalType": "address",
          "name": "newOwner",
          "type": "address"
        }
      ],
      "name": "OwnershipTransferred",
      "type": "event"
    },
    {
      "anonymous": false,
      "inputs": [
        {
          "indexed": false,
          "internalType": "address",
          "name": "sender",
          "type": "address"
        },
        {
          "indexed": false,
          "internalType": "address",
          "name": "receiver",
          "type": "address"
        },
        {
          "indexed": false,
          "internalType": "uint256",
          "name": "amount",
          "type": "uint256"
        }
      ],
      "name": "Transfer",
      "type": "event"
    },
    {
      "anonymous": false,
      "inputs": [
        {
          "indexed": false,
          "internalType": "address",
          "name": "receiver",
          "type": "address"
        },
        {
          "indexed": false,
          "internalType": "uint256",
          "name": "amount",
          "type": "uint256"
        }
      ],
      "name": "Withdrawal",
      "type": "event"
    },
    {
      "inputs": [
        {
          "internalType": "address",
          "name": "",
          "type": "address"
        }
      ],
      "name": "balances",
      "outputs": [
        {
          "internalType": "uint256",
          "name": "",
          "type": "uint256"
        }
      ],
      "stateMutability": "view",
      "type": "function",
      "constant": true
    },
    {
      "inputs": [
        {
          "internalType": "uint256",
          "name": "",
          "type": "uint256"
        }
      ],
      "name": "bets",
      "outputs": [
        {
          "internalType": "string",
          "name": "name",
          "type": "string"
        },
        {
          "internalType": "address",
          "name": "addy",
          "type": "address"
        },
        {
          "internalType": "uint256",
          "name": "amount",
          "type": "uint256"
        },
        {
          "components": [
            {
              "internalType": "string",
              "name": "name",
              "type": "string"
            },
            {
              "internalType": "uint256",
              "name": "totalBetAmount",
              "type": "uint256"
            }
          ],
          "internalType": "struct bet.Team",
          "name": "teamBet",
          "type": "tuple"
        }
      ],
      "stateMutability": "view",
      "type": "function",
      "constant": true
    },
    {
      "inputs": [],
      "name": "deposit",
      "outputs": [],
      "stateMutability": "payable",
      "type": "function",
      "payable": true
    },
    {
      "inputs": [
        {
          "internalType": "uint256",
          "name": "val",
          "type": "uint256"
        }
      ],
      "name": "depositBro",
      "outputs": [],
      "stateMutability": "payable",
      "type": "function",
      "payable": true
    },
    {
      "inputs": [],
      "name": "isOwner",
      "outputs": [
        {
          "internalType": "bool",
          "name": "",
          "type": "bool"
        }
      ],
      "stateMutability": "view",
      "type": "function",
      "constant": true
    },
    {
      "inputs": [
        {
          "internalType": "address",
          "name": "",
          "type": "address"
        }
      ],
      "name": "numBetsAddress",
      "outputs": [
        {
          "internalType": "uint256",
          "name": "",
          "type": "uint256"
        }
      ],
      "stateMutability": "view",
      "type": "function",
      "constant": true
    },
    {
      "inputs": [],
      "name": "owner",
      "outputs": [
        {
          "internalType": "address",
          "name": "",
          "type": "address"
        }
      ],
      "stateMutability": "view",
      "type": "function",
      "constant": true
    },
    {
      "inputs": [],
      "name": "renounceOwnership",
      "outputs": [],
      "stateMutability": "nonpayable",
      "type": "function"
    },
    {
      "inputs": [
        {
          "internalType": "uint256",
          "name": "",
          "type": "uint256"
        }
      ],
      "name": "teams",
      "outputs": [
        {
          "internalType": "string",
          "name": "name",
          "type": "string"
        },
        {
          "internalType": "uint256",
          "name": "totalBetAmount",
          "type": "uint256"
        }
      ],
      "stateMutability": "view",
      "type": "function",
      "constant": true
    },
    {
      "inputs": [],
      "name": "totalBetMoney",
      "outputs": [
        {
          "internalType": "uint256",
          "name": "",
          "type": "uint256"
        }
      ],
      "stateMutability": "view",
      "type": "function",
      "constant": true
    },
    {
      "inputs": [
        {
          "internalType": "address[]",
          "name": "receivers",
          "type": "address[]"
        },
        {
          "internalType": "uint256",
          "name": "amount",
          "type": "uint256"
        }
      ],
      "name": "transfer",
      "outputs": [],
      "stateMutability": "nonpayable",
      "type": "function"
    },
    {
      "inputs": [
        {
          "internalType": "address",
          "name": "receiver",
          "type": "address"
        },
        {
          "internalType": "uint256",
          "name": "amount",
          "type": "uint256"
        }
      ],
      "name": "transfer",
      "outputs": [],
      "stateMutability": "nonpayable",
      "type": "function"
    },
    {
      "inputs": [
        {
          "internalType": "address",
          "name": "newOwner",
          "type": "address"
        }
      ],
      "name": "transferOwnership",
      "outputs": [],
      "stateMutability": "nonpayable",
      "type": "function"
    },
    {
      "inputs": [
        {
          "internalType": "uint256",
          "name": "amount",
          "type": "uint256"
        }
      ],
      "name": "withdraw",
      "outputs": [],
      "stateMutability": "nonpayable",
      "type": "function"
    },
    {
      "inputs": [
        {
          "internalType": "string",
          "name": "_name",
          "type": "string"
        }
      ],
      "name": "createTeam",
      "outputs": [],
      "stateMutability": "nonpayable",
      "type": "function"
    },
    {
      "inputs": [
        {
          "internalType": "uint256",
          "name": "_teamId",
          "type": "uint256"
        }
      ],
      "name": "getTotalBetAmount",
      "outputs": [
        {
          "internalType": "uint256",
          "name": "",
          "type": "uint256"
        }
      ],
      "stateMutability": "view",
      "type": "function",
      "constant": true
    },
    {
      "inputs": [
        {
          "internalType": "string",
          "name": "_name",
          "type": "string"
        },
        {
          "internalType": "uint256",
          "name": "_teamId",
          "type": "uint256"
        }
      ],
      "name": "createBet",
      "outputs": [],
      "stateMutability": "payable",
      "type": "function",
      "payable": true
    },
    {
      "inputs": [
        {
          "internalType": "uint256",
          "name": "_teamId",
          "type": "uint256"
        }
      ],
      "name": "teamWinDistribution",
      "outputs": [],
      "stateMutability": "payable",
      "type": "function",
      "payable": true
    }
  ],
  "bytecode": "0x6080604052600060055533600160006101000a81548173ffffffffffffffffffffffffffffffffffffffff021916908373ffffffffffffffffffffffffffffffffffffffff160217905550600160009054906101000a900473ffffffffffffffffffffffffffffffffffffffff1673ffffffffffffffffffffffffffffffffffffffff16600073ffffffffffffffffffffffffffffffffffffffff167f8be0079c531659141344cd1fd0a4f28419497f9722a3daafe3b4186f6b6457e060405160405180910390a333600460006101000a81548173ffffffffffffffffffffffffffffffffffffffff021916908373ffffffffffffffffffffffffffffffffffffffff160217905550600360405180604001604052806040518060400160405280600581526020017f7465616d310000000000000000000000000000000000000000000000000000008152508152602001600081525090806001815401808255809150506001900390600052602060002090600202016000909190919091506000820151816000019081620001959190620004bc565b50602082015181600101555050600360405180604001604052806040518060400160405280600581526020017f7465616d3200000000000000000000000000000000000000000000000000000081525081526020016000815250908060018154018082558091505060019003906000526020600020906002020160009091909190915060008201518160000190816200022f9190620004bc565b50602082015181600101555050620005a3565b600081519050919050565b7f4e487b7100000000000000000000000000000000000000000000000000000000600052604160045260246000fd5b7f4e487b7100000000000000000000000000000000000000000000000000000000600052602260045260246000fd5b60006002820490506001821680620002c457607f821691505b602082108103620002da57620002d96200027c565b5b50919050565b60008190508160005260206000209050919050565b60006020601f8301049050919050565b600082821b905092915050565b600060088302620003447fffffffffffffffffffffffffffffffffffffffffffffffffffffffffffffffff8262000305565b62000350868362000305565b95508019841693508086168417925050509392505050565b6000819050919050565b6000819050919050565b60006200039d62000397620003918462000368565b62000372565b62000368565b9050919050565b6000819050919050565b620003b9836200037c565b620003d1620003c882620003a4565b84845462000312565b825550505050565b600090565b620003e8620003d9565b620003f5818484620003ae565b505050565b5b818110156200041d5762000411600082620003de565b600181019050620003fb565b5050565b601f8211156200046c576200043681620002e0565b6200044184620002f5565b8101602085101562000451578190505b620004696200046085620002f5565b830182620003fa565b50505b505050565b600082821c905092915050565b6000620004916000198460080262000471565b1980831691505092915050565b6000620004ac83836200047e565b9150826002028217905092915050565b620004c78262000242565b67ffffffffffffffff811115620004e357620004e26200024d565b5b620004ef8254620002ab565b620004fc82828562000421565b600060209050601f8311600181146200053457600084156200051f578287015190505b6200052b85826200049e565b8655506200059b565b601f1984166200054486620002e0565b60005b828110156200056e5784890151825560018201915060208501945060208101905062000547565b868310156200058e57848901516200058a601f8916826200047e565b8355505b6001600288020188555050505b505050505050565b612bd380620005b36000396000f3fe6080604052600436106101095760003560e01c8063715018a611610095578063a9059cbb11610064578063a9059cbb14610363578063c8e405151461038c578063d0e30db0146103b7578063d6704206146103c1578063f2fde38b146103dd57610109565b8063715018a6146102cd5780638da5cb5b146102e45780638f32d59b1461030f578063972fa53f1461033a57610109565b80632e1a7d4d116100dc5780632e1a7d4d146101f15780633ed2b77a1461021a5780634610a13114610258578063481972c41461027457806350de367a1461029057610109565b80630e89da561461010e5780631939c1ff1461014b57806322af00fa1461017457806327e235e3146101b4575b600080fd5b34801561011a57600080fd5b5061013560048036038101906101309190611b81565b610406565b6040516101429190611bbd565b60405180910390f35b34801561015757600080fd5b50610172600480360381019061016d9190611d8f565b610435565b005b34801561018057600080fd5b5061019b60048036038101906101969190611b81565b6105ff565b6040516101ab9493929190611f0f565b60405180910390f35b3480156101c057600080fd5b506101db60048036038101906101d69190611f62565b61078d565b6040516101e89190611bbd565b60405180910390f35b3480156101fd57600080fd5b5061021860048036038101906102139190611b81565b6107a5565b005b34801561022657600080fd5b50610241600480360381019061023c9190611b81565b6108b7565b60405161024f929190611f8f565b60405180910390f35b610272600480360381019061026d9190611b81565b610973565b005b61028e60048036038101906102899190611b81565b610a2a565b005b34801561029c57600080fd5b506102b760048036038101906102b29190611f62565b610fa7565b6040516102c49190611bbd565b60405180910390f35b3480156102d957600080fd5b506102e2610fbf565b005b3480156102f057600080fd5b506102f9611091565b6040516103069190611fbf565b60405180910390f35b34801561031b57600080fd5b506103246110bb565b6040516103319190611ff5565b60405180910390f35b34801561034657600080fd5b50610361600480360381019061035c91906120c5565b611113565b005b34801561036f57600080fd5b5061038a6004803603810190610385919061210e565b611179565b005b34801561039857600080fd5b506103a16112e3565b6040516103ae9190611bbd565b60405180910390f35b6103bf6112e9565b005b6103db60048036038101906103d6919061214e565b611379565b005b3480156103e957600080fd5b5061040460048036038101906103ff9190611f62565b6118c6565b005b60006003828154811061041c5761041b6121aa565b5b9060005260206000209060020201600101549050919050565b8082516104429190612208565b6000803373ffffffffffffffffffffffffffffffffffffffff1673ffffffffffffffffffffffffffffffffffffffff1681526020019081526020016000205410156104c2576040517f08c379a00000000000000000000000000000000000000000000000000000000081526004016104b990612296565b60405180910390fd5b60005b82518110156105fa577fddf252ad1be2c89b69c2b068fc378daa952ba7f163c4a11628f55a4df523b3ef33848381518110610503576105026121aa565b5b60200260200101518460405161051b939291906122b6565b60405180910390a1816000803373ffffffffffffffffffffffffffffffffffffffff1673ffffffffffffffffffffffffffffffffffffffff168152602001908152602001600020600082825461057191906122ed565b925050819055508160008085848151811061058f5761058e6121aa565b5b602002602001015173ffffffffffffffffffffffffffffffffffffffff1673ffffffffffffffffffffffffffffffffffffffff16815260200190815260200160002060008282546105e09190612321565b9250508190555080806105f290612355565b9150506104c5565b505050565b6002818154811061060f57600080fd5b9060005260206000209060050201600091509050806000018054610632906123cc565b80601f016020809104026020016040519081016040528092919081815260200182805461065e906123cc565b80156106ab5780601f10610680576101008083540402835291602001916106ab565b820191906000526020600020905b81548152906001019060200180831161068e57829003601f168201915b5050505050908060010160009054906101000a900473ffffffffffffffffffffffffffffffffffffffff1690806002015490806003016040518060400160405290816000820180546106fc906123cc565b80601f0160208091040260200160405190810160405280929190818152602001828054610728906123cc565b80156107755780601f1061074a57610100808354040283529160200191610775565b820191906000526020600020905b81548152906001019060200180831161075857829003601f168201915b50505050508152602001600182015481525050905084565b60006020528060005260406000206000915090505481565b806000803373ffffffffffffffffffffffffffffffffffffffff1673ffffffffffffffffffffffffffffffffffffffff168152602001908152602001600020541015610826576040517f08c379a000000000000000000000000000000000000000000000000000000000815260040161081d90612296565b60405180910390fd5b7f7fcf532c15f0a6db0bd6d0e038bea71d30d808c7d98cb3bf7268a95bf5081b6533826040516108579291906123fd565b60405180910390a1806000803373ffffffffffffffffffffffffffffffffffffffff1673ffffffffffffffffffffffffffffffffffffffff16815260200190815260200160002060008282546108ad91906122ed565b9250508190555050565b600381815481106108c757600080fd5b90600052602060002090600202016000915090508060000180546108ea906123cc565b80601f0160208091040260200160405190810160405280929190818152602001828054610916906123cc565b80156109635780601f1061093857610100808354040283529160200191610963565b820191906000526020600020905b81548152906001019060200180831161094657829003601f168201915b5050505050908060010154905082565b7fe1fffcc4923d04b559f4d29a8bfc6cda04eb5b0d3c460751c2402c5c5cc9109c33670de0b6b3a7640000836109a99190612208565b6040516109b79291906123fd565b60405180910390a1670de0b6b3a7640000816109d39190612208565b6000803373ffffffffffffffffffffffffffffffffffffffff1673ffffffffffffffffffffffffffffffffffffffff1681526020019081526020016000206000828254610a209190612321565b9250508190555050565b610a326110bb565b610a3b57600080fd5b610a436112e9565b600060018203610c6a5760005b600280549050811015610c6457604051602001610a6c9061247d565b6040516020818303038152906040528051906020012060028281548110610a9657610a956121aa565b5b9060005260206000209060050201600301600001604051602001610aba919061252a565b6040516020818303038152906040528051906020012003610c5157600060028281548110610aeb57610aea6121aa565b5b906000526020600020906005020160010160009054906101000a900473ffffffffffffffffffffffffffffffffffffffff169050610b28816118e3565b612710610b356000610406565b612710610b426001610406565b610b4c9190612208565b610b569190612570565b612710610b639190612321565b60028481548110610b7757610b766121aa565b5b906000526020600020906005020160020154610b939190612208565b610b9d9190612570565b92506000808273ffffffffffffffffffffffffffffffffffffffff1685604051610bc6906125d2565b60006040518083038185875af1925050503d8060008114610c03576040519150601f19603f3d011682016040523d82523d6000602084013e610c08565b606091505b509150915081610c4d576040517f08c379a0000000000000000000000000000000000000000000000000000000008152600401610c4490612633565b60405180910390fd5b5050505b8080610c5c90612355565b915050610a50565b50610e95565b60005b600280549050811015610e9357604051602001610c899061269f565b6040516020818303038152906040528051906020012060028281548110610cb357610cb26121aa565b5b9060005260206000209060050201600301600001604051602001610cd7919061252a565b6040516020818303038152906040528051906020012003610e8057600060028281548110610d0857610d076121aa565b5b906000526020600020906005020160010160009054906101000a900473ffffffffffffffffffffffffffffffffffffffff169050612710610d496001610406565b612710610d566000610406565b610d609190612208565b610d6a9190612570565b612710610d779190612321565b60028481548110610d8b57610d8a6121aa565b5b906000526020600020906005020160020154610da79190612208565b610db19190612570565b9250610dc5610dc06000610406565b61197c565b610dce8361197c565b6000808273ffffffffffffffffffffffffffffffffffffffff1685604051610df5906125d2565b60006040518083038185875af1925050503d8060008114610e32576040519150601f19603f3d011682016040523d82523d6000602084013e610e37565b606091505b509150915081610e7c576040517f08c379a0000000000000000000000000000000000000000000000000000000008152600401610e7390612633565b60405180910390fd5b5050505b8080610e8b90612355565b915050610c6d565b505b600060058190555060006003600081548110610eb457610eb36121aa565b5b90600052602060002090600202016001018190555060006003600181548110610ee057610edf6121aa565b5b90600052602060002090600202016001018190555060005b600280549050811015610fa25760006006600060028481548110610f1f57610f1e6121aa565b5b906000526020600020906005020160010160009054906101000a900473ffffffffffffffffffffffffffffffffffffffff1673ffffffffffffffffffffffffffffffffffffffff1673ffffffffffffffffffffffffffffffffffffffff168152602001908152602001600020819055508080610f9a90612355565b915050610ef8565b505050565b60066020528060005260406000206000915090505481565b610fc76110bb565b610fd057600080fd5b600073ffffffffffffffffffffffffffffffffffffffff16600160009054906101000a900473ffffffffffffffffffffffffffffffffffffffff1673ffffffffffffffffffffffffffffffffffffffff167f8be0079c531659141344cd1fd0a4f28419497f9722a3daafe3b4186f6b6457e060405160405180910390a36000600160006101000a81548173ffffffffffffffffffffffffffffffffffffffff021916908373ffffffffffffffffffffffffffffffffffffffff160217905550565b6000600160009054906101000a900473ffffffffffffffffffffffffffffffffffffffff16905090565b6000600160009054906101000a900473ffffffffffffffffffffffffffffffffffffffff1673ffffffffffffffffffffffffffffffffffffffff163373ffffffffffffffffffffffffffffffffffffffff1614905090565b60036040518060400160405280838152602001600081525090806001815401808255809150506001900390600052602060002090600202016000909190919091506000820151816000019081611169919061284b565b5060208201518160010155505050565b806000803373ffffffffffffffffffffffffffffffffffffffff1673ffffffffffffffffffffffffffffffffffffffff1681526020019081526020016000205410156111fa576040517f08c379a00000000000000000000000000000000000000000000000000000000081526004016111f190612296565b60405180910390fd5b7fddf252ad1be2c89b69c2b068fc378daa952ba7f163c4a11628f55a4df523b3ef33838360405161122d939291906122b6565b60405180910390a1806000803373ffffffffffffffffffffffffffffffffffffffff1673ffffffffffffffffffffffffffffffffffffffff168152602001908152602001600020600082825461128391906122ed565b92505081905550806000808473ffffffffffffffffffffffffffffffffffffffff1673ffffffffffffffffffffffffffffffffffffffff16815260200190815260200160002060008282546112d89190612321565b925050819055505050565b60055481565b7fe1fffcc4923d04b559f4d29a8bfc6cda04eb5b0d3c460751c2402c5c5cc9109c333460405161131a9291906123fd565b60405180910390a1346000803373ffffffffffffffffffffffffffffffffffffffff1673ffffffffffffffffffffffffffffffffffffffff16815260200190815260200160002060008282546113709190612321565b92505081905550565b600460009054906101000a900473ffffffffffffffffffffffffffffffffffffffff1673ffffffffffffffffffffffffffffffffffffffff163373ffffffffffffffffffffffffffffffffffffffff1603611409576040517f08c379a000000000000000000000000000000000000000000000000000000000815260040161140090612969565b60405180910390fd5b6000600660003373ffffffffffffffffffffffffffffffffffffffff1673ffffffffffffffffffffffffffffffffffffffff168152602001908152602001600020541461148b576040517f08c379a0000000000000000000000000000000000000000000000000000000008152600401611482906129d5565b60405180910390fd5b662386f26fc1000034116114d4576040517f08c379a00000000000000000000000000000000000000000000000000000000081526004016114cb90612a41565b60405180910390fd5b6114dc6112e9565b600260405180608001604052808481526020013373ffffffffffffffffffffffffffffffffffffffff16815260200134815260200160038481548110611525576115246121aa565b5b906000526020600020906002020160405180604001604052908160008201805461154e906123cc565b80601f016020809104026020016040519081016040528092919081815260200182805461157a906123cc565b80156115c75780601f1061159c576101008083540402835291602001916115c7565b820191906000526020600020905b8154815290600101906020018083116115aa57829003601f168201915b505050505081526020016001820154815250508152509080600181540180825580915050600190039060005260206000209060050201600090919091909150600082015181600001908161161b919061284b565b5060208201518160010160006101000a81548173ffffffffffffffffffffffffffffffffffffffff021916908373ffffffffffffffffffffffffffffffffffffffff16021790555060408201518160020155606082015181600301600082015181600001908161168b919061284b565b506020820151816001015550505050600081036116e0573460036000815481106116b8576116b76121aa565b5b906000526020600020906002020160010160008282546116d89190612321565b925050819055505b60018103611726573460036001815481106116fe576116fd6121aa565b5b9060005260206000209060020201600101600082825461171e9190612321565b925050819055505b600660003373ffffffffffffffffffffffffffffffffffffffff1673ffffffffffffffffffffffffffffffffffffffff168152602001908152602001600020600081548092919061177690612355565b9190505550600080600460009054906101000a900473ffffffffffffffffffffffffffffffffffffffff1673ffffffffffffffffffffffffffffffffffffffff16346040516117c4906125d2565b60006040518083038185875af1925050503d8060008114611801576040519150601f19603f3d011682016040523d82523d6000602084013e611806565b606091505b50915091508161184b576040517f08c379a000000000000000000000000000000000000000000000000000000000815260040161184290612633565b60405180910390fd5b346005600082825461185d9190612321565b925050819055507f948a46eba9469fc822b082631d32f2456ea94a35179d32230095b6f34fb341cb33346003868154811061189b5761189a6121aa565b5b90600052602060002090600202016040516118b893929190612b5f565b60405180910390a150505050565b6118ce6110bb565b6118d757600080fd5b6118e081611a15565b50565b611979816040516024016118f79190611fbf565b6040516020818303038152906040527f2c2ecbc2000000000000000000000000000000000000000000000000000000007bffffffffffffffffffffffffffffffffffffffffffffffffffffffff19166020820180517bffffffffffffffffffffffffffffffffffffffffffffffffffffffff8381831617835250505050611b0e565b50565b611a12816040516024016119909190611bbd565b6040516020818303038152906040527ff5b1bba9000000000000000000000000000000000000000000000000000000007bffffffffffffffffffffffffffffffffffffffffffffffffffffffff19166020820180517bffffffffffffffffffffffffffffffffffffffffffffffffffffffff8381831617835250505050611b0e565b50565b600073ffffffffffffffffffffffffffffffffffffffff168173ffffffffffffffffffffffffffffffffffffffff1603611a4e57600080fd5b8073ffffffffffffffffffffffffffffffffffffffff16600160009054906101000a900473ffffffffffffffffffffffffffffffffffffffff1673ffffffffffffffffffffffffffffffffffffffff167f8be0079c531659141344cd1fd0a4f28419497f9722a3daafe3b4186f6b6457e060405160405180910390a380600160006101000a81548173ffffffffffffffffffffffffffffffffffffffff021916908373ffffffffffffffffffffffffffffffffffffffff16021790555050565b60008151905060006a636f6e736f6c652e6c6f679050602083016000808483855afa5050505050565b6000604051905090565b600080fd5b600080fd5b6000819050919050565b611b5e81611b4b565b8114611b6957600080fd5b50565b600081359050611b7b81611b55565b92915050565b600060208284031215611b9757611b96611b41565b5b6000611ba584828501611b6c565b91505092915050565b611bb781611b4b565b82525050565b6000602082019050611bd26000830184611bae565b92915050565b600080fd5b6000601f19601f8301169050919050565b7f4e487b7100000000000000000000000000000000000000000000000000000000600052604160045260246000fd5b611c2682611bdd565b810181811067ffffffffffffffff82111715611c4557611c44611bee565b5b80604052505050565b6000611c58611b37565b9050611c648282611c1d565b919050565b600067ffffffffffffffff821115611c8457611c83611bee565b5b602082029050602081019050919050565b600080fd5b600073ffffffffffffffffffffffffffffffffffffffff82169050919050565b6000611cc582611c9a565b9050919050565b611cd581611cba565b8114611ce057600080fd5b50565b600081359050611cf281611ccc565b92915050565b6000611d0b611d0684611c69565b611c4e565b90508083825260208201905060208402830185811115611d2e57611d2d611c95565b5b835b81811015611d575780611d438882611ce3565b845260208401935050602081019050611d30565b5050509392505050565b600082601f830112611d7657611d75611bd8565b5b8135611d86848260208601611cf8565b91505092915050565b60008060408385031215611da657611da5611b41565b5b600083013567ffffffffffffffff811115611dc457611dc3611b46565b5b611dd085828601611d61565b9250506020611de185828601611b6c565b9150509250929050565b600081519050919050565b600082825260208201905092915050565b60005b83811015611e25578082015181840152602081019050611e0a565b60008484015250505050565b6000611e3c82611deb565b611e468185611df6565b9350611e56818560208601611e07565b611e5f81611bdd565b840191505092915050565b611e7381611cba565b82525050565b600082825260208201905092915050565b6000611e9582611deb565b611e9f8185611e79565b9350611eaf818560208601611e07565b611eb881611bdd565b840191505092915050565b611ecc81611b4b565b82525050565b60006040830160008301518482036000860152611eef8282611e8a565b9150506020830151611f046020860182611ec3565b508091505092915050565b60006080820190508181036000830152611f298187611e31565b9050611f386020830186611e6a565b611f456040830185611bae565b8181036060830152611f578184611ed2565b905095945050505050565b600060208284031215611f7857611f77611b41565b5b6000611f8684828501611ce3565b91505092915050565b60006040820190508181036000830152611fa98185611e31565b9050611fb86020830184611bae565b9392505050565b6000602082019050611fd46000830184611e6a565b92915050565b60008115159050919050565b611fef81611fda565b82525050565b600060208201905061200a6000830184611fe6565b92915050565b600080fd5b600067ffffffffffffffff8211156120305761202f611bee565b5b61203982611bdd565b9050602081019050919050565b82818337600083830152505050565b600061206861206384612015565b611c4e565b90508281526020810184848401111561208457612083612010565b5b61208f848285612046565b509392505050565b600082601f8301126120ac576120ab611bd8565b5b81356120bc848260208601612055565b91505092915050565b6000602082840312156120db576120da611b41565b5b600082013567ffffffffffffffff8111156120f9576120f8611b46565b5b61210584828501612097565b91505092915050565b6000806040838503121561212557612124611b41565b5b600061213385828601611ce3565b925050602061214485828601611b6c565b9150509250929050565b6000806040838503121561216557612164611b41565b5b600083013567ffffffffffffffff81111561218357612182611b46565b5b61218f85828601612097565b92505060206121a085828601611b6c565b9150509250929050565b7f4e487b7100000000000000000000000000000000000000000000000000000000600052603260045260246000fd5b7f4e487b7100000000000000000000000000000000000000000000000000000000600052601160045260246000fd5b600061221382611b4b565b915061221e83611b4b565b925082820261222c81611b4b565b91508282048414831517612243576122426121d9565b5b5092915050565b7f496e73756666696369656e742066756e64730000000000000000000000000000600082015250565b6000612280601283611df6565b915061228b8261224a565b602082019050919050565b600060208201905081810360008301526122af81612273565b9050919050565b60006060820190506122cb6000830186611e6a565b6122d86020830185611e6a565b6122e56040830184611bae565b949350505050565b60006122f882611b4b565b915061230383611b4b565b925082820390508181111561231b5761231a6121d9565b5b92915050565b600061232c82611b4b565b915061233783611b4b565b925082820190508082111561234f5761234e6121d9565b5b92915050565b600061236082611b4b565b91507fffffffffffffffffffffffffffffffffffffffffffffffffffffffffffffffff8203612392576123916121d9565b5b600182019050919050565b7f4e487b7100000000000000000000000000000000000000000000000000000000600052602260045260246000fd5b600060028204905060018216806123e457607f821691505b6020821081036123f7576123f661239d565b5b50919050565b60006040820190506124126000830185611e6a565b61241f6020830184611bae565b9392505050565b600081905092915050565b7f7465616d31000000000000000000000000000000000000000000000000000000600082015250565b6000612467600583612426565b915061247282612431565b600582019050919050565b60006124888261245a565b9150819050919050565b60008190508160005260206000209050919050565b600081546124b4816123cc565b6124be8186612426565b945060018216600081146124d957600181146124ee57612521565b60ff1983168652811515820286019350612521565b6124f785612492565b60005b83811015612519578154818901526001820191506020810190506124fa565b838801955050505b50505092915050565b600061253682846124a7565b915081905092915050565b7f4e487b7100000000000000000000000000000000000000000000000000000000600052601260045260246000fd5b600061257b82611b4b565b915061258683611b4b565b92508261259657612595612541565b5b828204905092915050565b600081905092915050565b50565b60006125bc6000836125a1565b91506125c7826125ac565b600082019050919050565b60006125dd826125af565b9150819050919050565b7f4661696c656420746f2073656e64204574686572000000000000000000000000600082015250565b600061261d601483611df6565b9150612628826125e7565b602082019050919050565b6000602082019050818103600083015261264c81612610565b9050919050565b7f7465616d32000000000000000000000000000000000000000000000000000000600082015250565b6000612689600583612426565b915061269482612653565b600582019050919050565b60006126aa8261267c565b9150819050919050565b60006020601f8301049050919050565b600082821b905092915050565b6000600883026127017fffffffffffffffffffffffffffffffffffffffffffffffffffffffffffffffff826126c4565b61270b86836126c4565b95508019841693508086168417925050509392505050565b6000819050919050565b600061274861274361273e84611b4b565b612723565b611b4b565b9050919050565b6000819050919050565b6127628361272d565b61277661276e8261274f565b8484546126d1565b825550505050565b600090565b61278b61277e565b612796818484612759565b505050565b5b818110156127ba576127af600082612783565b60018101905061279c565b5050565b601f8211156127ff576127d081612492565b6127d9846126b4565b810160208510156127e8578190505b6127fc6127f4856126b4565b83018261279b565b50505b505050565b600082821c905092915050565b600061282260001984600802612804565b1980831691505092915050565b600061283b8383612811565b9150826002028217905092915050565b61285482611deb565b67ffffffffffffffff81111561286d5761286c611bee565b5b61287782546123cc565b6128828282856127be565b600060209050601f8311600181146128b557600084156128a3578287015190505b6128ad858261282f565b865550612915565b601f1984166128c386612492565b60005b828110156128eb578489015182556001820191506020850194506020810190506128c6565b868310156129085784890151612904601f891682612811565b8355505b6001600288020188555050505b505050505050565b7f6f776e65722063616e2774206d616b6520612062657400000000000000000000600082015250565b6000612953601683611df6565b915061295e8261291d565b602082019050919050565b6000602082019050818103600083015261298281612946565b9050919050565b7f796f75206861766520616c726561647920706c61636564206120626574000000600082015250565b60006129bf601d83611df6565b91506129ca82612989565b602082019050919050565b600060208201905081810360008301526129ee816129b2565b9050919050565b7f626574206d6f7265000000000000000000000000000000000000000000000000600082015250565b6000612a2b600883611df6565b9150612a36826129f5565b602082019050919050565b60006020820190508181036000830152612a5a81612a1e565b9050919050565b60008154612a6e816123cc565b612a788186611e79565b94506001821660008114612a935760018114612aa957612adc565b60ff198316865281151560200286019350612adc565b612ab285612492565b60005b83811015612ad457815481890152600182019150602081019050612ab5565b808801955050505b50505092915050565b60008160001c9050919050565b6000819050919050565b6000612b0f612b0a83612ae5565b612af2565b9050919050565b60006040830160008084018583036000870152612b338382612a61565b92505060018401549050612b4681612afc565b612b536020870182611ec3565b50819250505092915050565b6000606082019050612b746000830186611e6a565b612b816020830185611bae565b8181036040830152612b938184612b16565b905094935050505056fea264697066735822122076d30ad71557f85e36c1c9165927136311fce1bb1a49fbe8bc8060a3d06c0d2c64736f6c63430008130033",
  "immutableReferences": {},
  "source": "// SPDX-License-Identifier: MIT\r\npragma solidity 0.8.19;\r\n\r\nimport \"./Ownable.sol\";\r\nimport \"./ATM.sol\";\r\nimport \"./console.sol\";\r\n\r\ncontract bet is ATM, Ownable {\r\n\r\n    event NewBet(\r\n        address addy, \r\n        uint amount, \r\n        Team teamBet\r\n    );\r\n\r\n    struct Bet {\r\n        string name;\r\n        address addy;\r\n        uint amount;\r\n        Team teamBet;\r\n    }\r\n\r\n    struct Team {\r\n        string name;\r\n        uint totalBetAmount;\r\n    }\r\n\r\n    Bet[] public bets;\r\n    Team[] public teams;\r\n    \r\n    address payable conOwner;\r\n    uint public totalBetMoney = 0;\r\n\r\n    mapping (address => uint) public numBetsAddress;\r\n\r\n\r\n    constructor() payable {\r\n        conOwner = payable(msg.sender);\r\n        teams.push(Team(\"team1\", 0));\r\n        teams.push(Team(\"team2\", 0));\r\n\r\n    }\r\n\r\n    function createTeam (string memory _name) public {\r\n        teams.push(Team(_name, 0));\r\n    }\r\n\r\n    function getTotalBetAmount (uint _teamId) public view returns (uint) {\r\n        return teams[_teamId].totalBetAmount;\r\n    }\r\n    \r\n    function createBet (string memory _name, uint _teamId) external payable {       \r\n        require (msg.sender != conOwner, \"owner can't make a bet\");\r\n        require (numBetsAddress[msg.sender] == 0, \"you have already placed a bet\");\r\n        require (msg.value > 0.01 ether, \"bet more\");\r\n\r\n        deposit();\r\n\r\n        bets.push(Bet(_name, msg.sender, msg.value, teams[_teamId]));\r\n\r\n        if (_teamId == 0) {\r\n            teams[0].totalBetAmount += msg.value;\r\n        } \r\n        if (_teamId == 1) {\r\n            teams[1].totalBetAmount += msg.value;\r\n        }\r\n\r\n        numBetsAddress[msg.sender]++;\r\n        \r\n        (bool sent, bytes memory data) = conOwner.call{value: msg.value}(\"\");\r\n        require(sent, \"Failed to send Ether\");\r\n\r\n        totalBetMoney += msg.value;\r\n\r\n        emit NewBet(msg.sender, msg.value, teams[_teamId]);\r\n\r\n    }\r\n\r\n    function teamWinDistribution(uint _teamId) public payable onlyOwner() {\r\n        \r\n        deposit();\r\n        uint div;\r\n                \r\n        if (_teamId == 1) {\r\n            for (uint i = 0; i < bets.length; i++) {\r\n                if (keccak256(abi.encodePacked((bets[i].teamBet.name))) == keccak256(abi.encodePacked(\"team1\"))) {\r\n                    address payable receiver = payable(bets[i].addy);\r\n                    console.log(receiver);\r\n                    div = (bets[i].amount * (10000 + (getTotalBetAmount(1) * 10000 / getTotalBetAmount(0)))) / 10000;\r\n\r\n                    (bool sent, bytes memory data) = receiver.call{ value: div }(\"\");\r\n                    require(sent, \"Failed to send Ether\");\r\n                    \r\n                }\r\n            }\r\n        } else {\r\n            for (uint i = 0; i < bets.length; i++) {\r\n                if (keccak256(abi.encodePacked((bets[i].teamBet.name))) == keccak256(abi.encodePacked(\"team2\"))) {\r\n                    address payable receiver = payable(bets[i].addy);\r\n                    div = (bets[i].amount * (10000 + (getTotalBetAmount(0) * 10000 / getTotalBetAmount(1)))) / 10000;\r\n                    console.log(getTotalBetAmount(0));\r\n                    console.log(div);\r\n\r\n                    (bool sent, bytes memory data) = receiver.call{ value: div }(\"\");\r\n                    require(sent, \"Failed to send Ether\");\r\n                }\r\n            }\r\n        }\r\n\r\n        totalBetMoney = 0;\r\n        teams[0].totalBetAmount = 0;\r\n        teams[1].totalBetAmount = 0;\r\n\r\n        for (uint i = 0; i < bets.length; i++) {\r\n            numBetsAddress[bets[i].addy] = 0;\r\n        }\r\n    }\r\n}",
  "sourcePath": "C:\\Users\\ivanc\\Desktop\\FAKS\\2.semestar\\BA\\ProjektBA\\src\\contracts\\bet.sol",
  "compiler": {
    "name": "solc",
    "version": "0.8.19+commit.7dd6d404.Emscripten.clang"
  },
  "schemaVersion": "3.4.16",
  "updatedAt": "2024-04-18T16:43:47.489Z",
  "networkType": "ethereum",
  "devdoc": {
    "kind": "dev",
    "methods": {
      "isOwner()": {
        "returns": {
          "_0": "true if `msg.sender` is the owner of the contract."
        }
      },
      "owner()": {
        "returns": {
          "_0": "the address of the owner."
        }
      },
      "renounceOwnership()": {
        "details": "Allows the current owner to relinquish control of the contract."
      },
      "transferOwnership(address)": {
        "details": "Allows the current owner to transfer control of the contract to a newOwner.",
        "params": {
          "newOwner": "The address to transfer ownership to."
        }
      }
    },
    "version": 1
  },
  "userdoc": {
    "kind": "user",
    "methods": {
      "renounceOwnership()": {
        "notice": "Renouncing to ownership will leave the contract without an owner. It will not be possible to call the functions with the `onlyOwner` modifier anymore."
      }
    },
    "version": 1
  }
}